:020000040800F2
:1000000000200020DD070008290800082908000852
:1000100000000000000000000000000000000000E0
:100020000000000000000000000000002908000897
:100030000000000000000000290800085D02000820
:1000400029080008290800082908000829080008CC
:100050002908000875020008290800082908000876
:1000600029080008290800082908000829080008AC
:10007000290800082908000829080008290800089C
:1000800029080008290800080000000029080008C5
:10009000290800082908000829080008290800087C
:1000A000290800082908000829080008290800086C
:1000B00029080008000000002908000800000000CE
:1000C0005FF808F180B582B000AF78600A1CFB1CB5
:1000D0001A70FB1C1B78002B06D0084B074A51698D
:1000E0007A680A435A6106E0044B044A5269796807
:1000F000C9430A405A61BD4602B080BD00100240AB
:1001000080B582B000AF78600A1CFB1C1A70FB1C23
:100110001B78002B06D0084B074A91697A680A437E
:100120009A6106E0044B044A92697968C9430A401F
:100130009A61BD4602B080BD00100240B0B582B0E9
:1001400000AF021C3960FB1D1A70FB1D1B787F2B52
:100150002FD92D4CFB1D1B781A1C0F231340083B75
:100160009908294AFB1D1B78181C0F230340083BE4
:100170009B0806339B00D3185B68FA1D1278101C8D
:1001800003220240D200101CFF228240D2431A40B8
:100190003B689B01FF200340F81D0078051C0320ED
:1001A0002840C00083401A438B1D9B00E3185A600F
:1001B00026E0164CFB1D1B785BB29B081349FA1D09
:1001C000127852B29208C03292005258F91D097842
:1001D000081C03210140C900081CFF218140C943BC
:1001E00011403A689201FF200240F81D0078051C7A
:1001F00003202840C00082400A43C0339B001A51AC
:10020000BD4602B0B0BDC04600ED00E000E100E038
:1002100080B582B000AF78607B680E4A934201D906
:10022000012312E00C4B7A681202120A013A5A605A
:1002300001235B42181C0321FFF780FF064B0022BD
:100240009A60054B07221A600023181CBD4602B0B5
:1002500080BDC046FFFFFF0010E000E080B500AFAA
:10026000034B1B685A1C024B1A60BD4680BDC0463A
:100270001400002098B500AF012000F095FD031E8A
:10028000012B28D1012000F0AFFD144B1B781C1C62
:10029000134B181C00F0EEFC031C99B2114B6200CA
:1002A000D1520E4B1B780133DAB20C4B1A700B4B48
:1002B0001B78292B0AD10C4B01221A70074B002204
:1002C0001A70074B181C002100F0DEFC044B181CB0
:1002D000002100F0C3FCBD4698BDC0466E00002062
:1002E000004001401C0000201800002080B582B0B2
:1002F00000AF021CFB1D1A70FB1D1B78002B11D1D7
:10030000154B181C00F0DAFB134B01221A60124B3C
:1003100000221A719023DA050F4B101C191C00F0F3
:100320003BFB16E00C4B181C00F0C8FB0A4B0122EB
:100330001A60094B01221A71074B01229A71064B70
:1003400000225A719023DA05034B101C191C00F08F
:1003500023FBBD4602B080BD8000002080B584B084
:1003600000AF78600A1CFB1C1A700023FB600B2393
:10037000FB1800221A700B23FB1800221A701EE0D3
:10038000FB1C1B7808229A400B23FB181B78D31AFE
:100390001A1C7B689B181B781A1C01231A400B231C
:1003A000FB181B789A40131C1A1CFB681343FB6054
:1003B0000B23FB181A780B23FB1801321A700B233E
:1003C000FB181A78FB1C1B78082199400B1C9A42D9
:1003D000D6DBFB68181CBD4604B080BD80B590B06C
:1003E00000AF80239B02181C0121FFF76BFE8023C6
:1003F0005B02181C0121FFF783FE01200121FFF79A
:100400007FFEE74B1B68181CFA23990000F094FD4F
:10041000031C181CFFF7FCFEE24B181C00F04EFBFF
:10042000E04B01221A60DF4B00221A719023DA059B
:10043000DC4B101C191C00F0AFFA0020002100F06A
:10044000DFFCD94B01221A60D74B00229A71D64BA0
:1004500000221A71D44B0C225A71D34B181C00F095
:1004600033FCD24B05221A70D04B01229A70CF4B2D
:1004700000225A70CD4B181C00F00AFDCC4B002214
:100480001A81CB4B00225A80C94BCA4A5A60C84BCA
:100490000F221A80C84AC64B101C191C00F066FBBC
:1004A000C54B181C002100F0EFFBC34B181C0021AA
:1004B00000F0D4FB3B1D00221A6000225A6000228B
:1004C0009A600022DA6000221A6100225A6100223A
:1004D0009A610022DA6100221A6200225A622822FE
:1004E000002199543B1D181C0021292200F04EFFC9
:1004F000B24B181C0021522200F048FFB04B0022E2
:100500001A60C046AE4B1B68AE4A9342FAD93B23F1
:10051000FB1800221A70AC4B00221A70A24B00226A
:100520009A71A14B181C00F0CFFB0120FFF7DEFEF3
:10053000A14B181C002100F091FB9F4B181C0121BE
:1005400000F0A2FB9023DB05181C012100F000FB4A
:10055000C046994B181C00F08DFB021E9B4B9A4223
:10056000F7D99023DB05181C012100F0E3FA924B28
:10057000181C002100F088FB8F4B181C002100F094
:100580006DFB0020FFF7B2FEC0469023DB05181C70
:10059000012100F0ABFA031EF7D1C0469023DB0522
:1005A000181C012100F0A2FA031EF7D07E4B012295
:1005B0009A717D4B181C00F087FB7F4B181C0121A2
:1005C00000F062FBC046804B1B78DBB2002BFAD0F8
:1005D0003B1D181C0021292200F0D8FE3F23FB18E8
:1005E00000221A701DE03F23FB181A78734B52004B
:1005F000D25A5423FF339A4206D83F23FB181B7864
:100600003A1D0021D15405E03F23FB181B783A1D09
:100610000121D1543F23FB181A783F23FB180132E4
:100620001A703F23FB181B78282BDCD9634B181C4E
:100630000021522200F0AAFE3B1D181C0121FFF7E9
:100640008DFE021C3823FB181A803823FB181B88E8
:10065000181C00F035FE031C181C5D4900F0FEFC60
:10066000031C7B633B1D1033181C0121FFF776FE32
:10067000021C3C23FB181A803C23FB181B881BB26E
:10068000002B16DA3C23FB183C22BA1812881A8079
:100690003C23FB181B88181C00F012FE021C802350
:1006A0001B065340181C4A4900F0D8FC031C3B634E
:1006B0000CE03C23FB181B88181C00F001FE031CF7
:1006C000181C434900F0CAFC031C3B633B1D20334C
:1006D000181C0021FFF742FE021C2F23FB181A7082
:1006E0003B23FB1800221A702E23FB1800221A70DD
:1006F0003C23FB181B881B0A9BB2D9B22E23FB1884
:100700002E22BA1812788A181A703C23FB181B88FC
:10071000D9B22E23FB182E22BA1812788A181A7012
:100720003823FB181B881B0A9BB2D9B22E23FB1857
:100730002E22BA1812788A181A703823FB181B88D0
:10074000D9B22E23FB182E22BA1812788A181A70E2
:100750002F23FA182E23FB1812781B789A4204D103
:100760003B23FB1801221A7003E03B23FB180022F5
:100770001A70134B00221A60164B164A1268012198
:100780000A431A60C0460E4B1B68134A9342FAD9BB
:10079000104B104A126801218A431A60BBE6C0461A
:1007A0000000002080000020880000207000002051
:1007B00074000020FFFF0000004001401C000020EA
:1007C00014000020DB05000018000020B90B000019
:1007D000CDCCCC3D10E000E0CF0700000C488546B2
:1007E000002103E00B4B5B58435004310A480B4B8C
:1007F00042189A42F6D30A4A02E0002313600432F8
:10080000084B9A42F9D300F011F8FFF7E7FDFEE735
:1008100000200020581400080000002014000020D0
:100820001400002090000020FEE7000080B500AF1B
:100830001B4B1B4A126801210A431A60184B184AC5
:10084000526818490A405A60154B154A12681649F1
:100850000A401A60124B124A126814490A401A6080
:100860000F4B0F4A526812490A405A600C4B0C4A0F
:10087000D26A0F218A43DA62094B094A126B0D4989
:100880000A401A63064B064A526B01218A435A6397
:10089000034B00229A6000F00FF8BD4680BDC046B1
:1008A000001002400CB8FFF8FFFFF6FEFFFFFBFF51
:1008B000FFFFC0FFACFEFFFF80B582B000AF00239A
:1008C0007B6000233B60314B304A12688021490233
:1008D0000A431A602D4B1A6880239B0213403B6029
:1008E0007B6801337B603B68002B04D17A68A023CE
:1008F000DB019A42EED1254B1A6880239B021340FC
:1009000002D001233B6001E000233B603B68012BE8
:1009100038D11F4B11221A601C4B1C4A52685A6076
:100920001A4B1A4A52685A60184B184A52681949A9
:100930000A405A60154B154A5268882149030A43F8
:100940005A60124B114A1268802149040A431A6006
:10095000C0460E4B1A6880239B041340F9D00B4B02
:100960000A4A526803218A435A60084B074A526870
:1009700002210A435A60C046044B5B680C221340B4
:10098000082BF9D1BD4602B080BDC0460010024020
:1009900000200240FFFFC0FF80B586B000AF786046
:1009A000396000237B6100233B610023FB6000234F
:1009B0007B617CE07B6901229A40131C3B613B68B0
:1009C0001B683A691340FB60FA683B699A426BD135
:1009D0003B681B79012B03D03B681B79022B34D178
:1009E0007B689B687A695200111C03228A40D243BB
:1009F0001A407B689A607B689A683B685B79191C2F
:100A00007B695B0099400B1C1A437B689A607B688A
:100A10009B889BB27A6992B2111C01228A4092B2E1
:100A2000D24392B213409AB27B689A807B689B88CB
:100A30009AB23B689B79191C7B699BB299400B1C4D
:100A40009BB213439AB27B689A807B681B687A6971
:100A50005200111C03228A40D2431A407B681A605C
:100A60007B681A683B681B79191C7B695B0099409D
:100A70000B1C1A437B681A607B68DB687A6992B248
:100A80005200032191400A1CD2431A407B68DA606D
:100A90007B68DA683B68DB79191C7B695B009940ED
:100AA0000B1C1A437B68DA607B6901337B617B69CD
:100AB0000F2B00D87EE7BD4606B080BD80B582B062
:100AC00000AF78607B68084A1A607B6800221A7160
:100AD0007B6801225A717B6800229A717B68002230
:100AE000DA71BD4602B080BDFFFF000080B584B062
:100AF00000AF78600A1CBB1C1A800F23FB18002271
:100B00001A707B681B8A9BB2BA1C128813409BB276
:100B1000002B04D00F23FB1801221A7003E00F23CF
:100B2000FB1800221A700F23FB181B78181CBD46F7
:100B300004B080BD80B582B000AF78600A1CBB1CD9
:100B40001A80BB1C1A887B689A61BD4602B080BDC2
:100B500080B582B000AF78600A1CBB1C1A807B682D
:100B6000BA1C12881A85BD4602B080BD80B584B01B
:100B700000AF786039600E23FB1800221A800E2324
:100B8000FB187A6812881A807B682D4A934208D035
:100B90007A688023DB059A4203D07B68294A934216
:100BA00010D10E23FB180E22BA18128870218A4326
:100BB0001A803B6859880E23FB180E22BA18128837
:100BC0000A431A807B68204A934210D00E23FB18F8
:100BD0000E22BA1812881D490A401A803B681989EA
:100BE0000E23FB180E22BA1812880A431A807B685B
:100BF0000E22BA1812881A803B685A687B68DA623B
:100C00003B681A887B681A857B680D4A93420BD033
:100C10007B680F4A934207D07B680E4A934203D009
:100C20007B680D4A934204D13B689B7A9AB27B68F9
:100C30001A867B6801229A82BD4604B080BDC046F8
:100C4000002C01400004004000100040FFFCFFFFAA
:100C500000400140004401400048014080B582B09E
:100C600000AF786039607B683A685A62BD4602B06E
:100C700080BDC04680B582B000AF78607B685B6A9B
:100C8000181CBD4602B080BD80B582B000AF786050
:100C90000A1CFB1C1A70FB1C1B78002B08D07B68FD
:100CA0001B889BB2012213439AB27B681A8007E02B
:100CB0007B681B889BB2012293439AB27B681A809F
:100CC000BD4602B080BDC04680B584B000AF78603C
:100CD0000023FB60334BFB607B689B79002B4FD07C
:100CE000304A304B19687B681B68DB430B4013604C
:100CF0002C4A2C4B59687B681B68DB430B405360C4
:100D00007B681B791A1CFB689B18FB60FB68FA6800
:100D100011687A6812680A431A60224A214B99685E
:100D20007B681B68DB430B4093601E4A1D4BD968F0
:100D30007B681B68DB430B40D3607B685B79102BBF
:100D40000ED1184A174B99687B681B680B43936058
:100D5000144A144BD9687B681B680B43D3601DE0B1
:100D6000104BFB607B685B791A1CFB689B18FB606F
:100D7000FB68FA6811687A6812680A431A600DE025
:100D80007B681B791A1CFB689B18FB60FB68FA6880
:100D900011687A681268D2430A401A60BD4604B0EE
:100DA00080BDC0460004014080B584B000AF7860CB
:100DB0000F23FB1800221A700A4B5B697A681340F4
:100DC00004D00F23FB1801221A7003E00F23FB1835
:100DD00000221A700F23FB181B78181CBD4604B0A4
:100DE00080BDC0460004014080B582B000AF78608D
:100DF000024B7A685A61BD4602B080BD00040140D2
:100E0000B0B584B000AF021CFB1D1A70BB1D0A1CDC
:100E10001A700023FB60BB1D1B78032213409B004C
:100E20000F229A40131CFB601849BB1D1B789B08BE
:100E3000DBB2181C154ABB1D1B789B08DBB20233C2
:100E40009B009B58FA68D2431A40831C9B005A505F
:100E50000E48BB1D1B789B08DBB21D1C0B4ABB1D3B
:100E60001B789B08DBB202339B009A58FB1D197854
:100E7000BB1D1B78032423409B0099400B1C1A4385
:100E8000AB1C9B001A50BD4604B0B0BD0000014031
:100E900080B584B000AF78600023FB607B689B78EE
:100EA000002B39D0234A7B681B789B08DBB2C03308
:100EB0009B009B58FB607B681B781A1C0323134024
:100EC000DB00FF229A40131CDA43FB681340FB60EF
:100ED0007B685B789B01FF221A407B681B78191C9A
:100EE00003230B40DB009A40131CFA681343FB609A
:100EF00010497B681B789B08DBB2C0339B00FA6803
:100F00005A500C4B7A681278111C1F220A4001219A
:100F100091400A1C1A600AE006497B681B781A1C7B
:100F20001F23134001229A40131C80228B50BD4680
:100F300004B080BD00E100E0002243088B4274D37E
:100F400003098B425FD3030A8B4244D3030B8B42CA
:100F500028D3030C8B420DD3FF22090212BA030CD3
:100F60008B4202D31212090265D0030B8B4219D3B4
:100F700000E0090AC30B8B4201D3CB03C01A5241D4
:100F8000830B8B4201D38B03C01A5241430B8B421C
:100F900001D34B03C01A5241030B8B4201D30B0305
:100FA000C01A5241C30A8B4201D3CB02C01A52412C
:100FB000830A8B4201D38B02C01A5241430A8B42EF
:100FC00001D34B02C01A5241030A8B4201D30B02D8
:100FD000C01A5241CDD2C3098B4201D3CB01C01AF2
:100FE000524183098B4201D38B01C01A52414309FC
:100FF0008B4201D34B01C01A524103098B4201D3EA
:101000000B01C01A5241C3088B4201D3CB00C01A56
:10101000524183088B4201D38B00C01A52414308CE
:101020008B4201D34B00C01A5241411A00D20146F3
:10103000524110467047FFE701B5002000F00CF860
:1010400002BDC0460029F7D003B5FFF775FF0EBCFF
:101050004243891A1847C0467047C046F0B55F46FC
:1010600056464D464446F0B445024600C40F83B090
:101070000F1C6D0A360EA34645D0FF2E25D08023C7
:101080001B041D4300239A46ED007F3E01937B0223
:101090005B0A98467800FB0F000E994640D0FF2867
:1010A00038D0802342461B041343DB0098460023BC
:1010B0007F384A46019F30186240411C1F430F2F62
:1010C00069D87D4EBF00F659B746002D45D108239B
:1010D0000193063B9A46DAE793465346022B2FD1FB
:1010E0005B46012400251C40FF236D02DB056D0AD1
:1010F000E4071D432543281C03B03CBC9046994699
:10110000A246AB46F0BD002D2CD104230193033B36
:101110009A46BCE743465A4253410322D31AC8E7D2
:1011200042460123002AC4D0404600F011F942464D
:10113000431F9A4076235B42181A90460023B8E773
:10114000032B00D1ADE0012B00D08CE05B46544670
:101150001C40E4B200230025C7E70C230193093BA0
:101160009A4694E7281C00F0F3F87626431F9D402A
:1011700000237642361A01939A4688E78025002498
:10118000ED03FF23B1E74546CB469A46A5E7454622
:1011900093469A46A1E743462C041B0C9C46230C1D
:1011A000444626041C1C360C2F0C7443351C664622
:1011B0007D4373437743EB18260C9E19B54203D940
:1011C00080235B029C46674424043304240C1B19CF
:1011D0009D016C1EA5419B0E360C2B43BD19AD0124
:1011E0001D432B0104D5012368081D400543081C3D
:1011F000031C7F33002B2CDD690704D00F2129400D
:10120000042900D00435290103D52C4B1D40031CB3
:101210008033FE2B17DD0124FF231440002564E7F3
:101220008020C003054209D04346034206D145460B
:1012300005436D026D0A4C46FF2356E705436D02D8
:101240006D0AFF2351E70124AD016D0ADBB21440A2
:101250004BE77E235B421B1A1B2B07DD0124002377
:101260001440002541E7081C5A46C1E79E30291C5E
:101270008540D940681E85410D436B0704D00F237C
:101280002B40042B00D004356B0104D5012401232D
:101290001440002529E70124AD016D0A1440002304
:1012A00023E78023DB031D4301245B466D022340BB
:1012B0001C1C6D0AFF2318E718140008FFFFFFF736
:1012C00010B5041E35D000F043F89E21091A962966
:1012D00009DC082830DD021C231C083A93405B021D
:1012E0005B0AC8B220E099290CDD0522231C121AE2
:1012F000D3401A1C031C1B339C40231C5C1EA341BF
:1013000013431C1C052801DD431F9C400F4B234049
:10131000620704D00F221440042C00D004335A0179
:101320000ED49B015B0AC8B25B025B0AC00518437E
:1013300010BD00200023F7E763025B0AC8B2F3E7A1
:101340009F21024A091A1340EBE7C046FFFFFFFB4B
:101350001C2101231B04984201D3000C10391B0AE5
:10136000984201D3000A08391B09984201D30009A9
:10137000043902A2105C40187047C0460403020200
:1013800001010101000000000000000070B58307AA
:101390003FD0541E002A3BD0CEB2031C032503E0ED
:1013A000621E002C34D0141C01335A1E16702B42BE
:1013B000F6D1032C24D9FF250D402A0215432A0417
:1013C00015430F2C11D9261C103E36090136360163
:1013D0001A1C9B19156055609560D56010329342B8
:1013E000F8D10F221440032C0AD9261FB608013663
:1013F000B6001A1C9B1920C29342FCD10322144050
:10140000002C05D0C9B21C1919700133A342FBD1BD
:1014100070BD141C031CCCE7961100088E11000847
:101420008E11000886110008D8100008D810000896
:101430007C11000886110008D81000087C110008F3
:10144000D810000886110008DA100008DA10000829
:08145000DA1000082012000868
:10145800006CDC0200000000000000000102030430
:041468000607080962
:0400000508000000EF
:00000001FF
